:100000000C94A9030C94C6030C94C6030C94C60369
:100010000C94C6030C94C6030C94C6030C94C6033C
:100020000C94C6030C94C6030C9496180C94DC161E
:100030000C944E290C94C6030C94C6030C94C6036E
:100040000C94C6030C94C6030C94C6030C94C6030C
:100050000C94C6030C94FA120C94C6030C94C603B9
:100060000C94C6030C94C6030C94C6030C94C603EC
:100070000C94C6030C94C6030C94C6030C94C603DC
:100080000C94C6030C94C6030C94C6030C94C603CC
:100090000C94C6030C94C6030C94C6030C94C603BC
:1000A0000C94C6030C94C6030C94C6030001010112
:1000B0000101010101010202020202020202020325
:1000C00003030303030303040404040404040505F5
:1000D00005050506060606060707070707080808B8
:1000E00008090909090A0A0A0B0B0B0C0C0C0D0D67
:1000F0000D0E0E0E0F0F0F101011111112121313FF
:100100001414151516161717181819191A1A1B1B77
:100110001C1D1D1E1E1F20202122222324242526D3
:1001200026272829292A2B2C2D2D2E2F303132320B
:10013000333435363738393A3B3C3D3E3F40414217
:10014000434445464748494A4C4D4E4F50515354FD
:10015000555658595A5B5D5E5F61626465666869B1
:100160006B6C6D6F7072737577787A7B7D7E808231
:10017000838587888A8C8E8F91939596989A9C9E7A
:10018000A0A2A3A5A7A9ABADAFB1B3B5B7BABCBE8A
:10019000C0C2C4C6C9CBCDCFD1D4D6D8DBDDDFE257
:1001A000E4E7E9EBEEF0F3F5F8FAFDFFFFAA7F557F
:1001B000402223252628292A2C2D2F30323335366C
:1001C000383A3B3D3E4042434547494A4C4E5051E8
:1001D000535557595A5C5E6062646668696B6D6F0F
:1001E00071737577797B7D7F81838587898A8C8E12
:1001F00090929496989A9C9E9FA1A3A5A7A8AAAC1A
:10020000AEAFB1B3B4B6B8B9BBBCBEBFC1C2C3C553
:10021000C6C7C9CACBCCCDCED0D1D2D2D3D4D5D6F5
:10022000D7D7D8D9D9DADADBDBDBDCDCDCDCDCDD28
:10023000DDDDDDDCDCDCDCDCDBDBDBDADAD9D9D80C
:10024000D7D7D6D5D4D3D2D2D1D0CECDCCCBCAC9A4
:10025000C7C6C5C3C2C1BFBEBCBBB9B8B6B4B3B1D3
:10026000AFAEACAAA8A7A5A3A19F9E9C9A9896946E
:1002700092908E8C8A89878583817F7D7B79777543
:1002800073716F6D6B6968666462605E5C5A595722
:10029000555351504E4C4A4947454342403E3D3BE1
:1002A0003A3836353332302F2D2C2A29282625236B
:1002B000222E004C002A00E100354100001E0014EF
:1002C0000004001D61085D4D001F001A0016001B90
:1002D00000E1042A00200008000700060050002C5E
:1002E0000021001500090019004F004A00220017E4
:1002F000000A000500000065645000015300000082
:100300000F0000E3004F000153000000070000E26F
:100310000023001C000B00110000002961240018BC
:10032000000D00100052004B0025000C000E00369E
:100330000051002800260012000F0037002F002B6C
:1003400000270013003342387130004E002D003179
:10035000003468E50001510000290001000100019E
:1003600000010000003A001E02200222022E000EB0
:100370005D3B001F02210223020100C95C3C002FEB
:100380000226022F000100CA5C3D00300227023025
:100390000001000D5D3E003102350035020000C352
:1003A0005C010001000000010000000C5D01000183
:1003B00000000001000000C25C3F00520051002418
:1003C0000200000B5D4000240021001E000100011E
:1003D000004100250022001F003700C55C420026B6
:1003E00000230020002700C65C430025022E0231B6
:1003F000002E000100440045000100010001000042
:1004000000010001000100010001000000010001E5
:100410000001000100085D010001000100F200017F
:1004200000010001000100F000F1000100F40001F2
:100430000001000100F3000100F5000100010001CE
:1004400000010001000000010001000100000001A6
:100450000000000100010001000000010000000197
:100460000001000100010001000000010001000185
:100470000001000100A9000100010001000100AC21
:1004800000AA00B600010001000100AB00A80001B5
:1004900000010001000100010001000100005C01F9
:1004A00000AE0001000100000032190A00047F3F85
:1004B0001F643214643214783C1E1E140A050A00AC
:1004C000000000000306B200080001000000A800C0
:1004D000080002000200A0001400030057494E5516
:1004E00053420000000000000000000084000400EF
:1004F00007002A004400650076006900630065007B
:1005000049006E00740065007200660061006300BF
:10051000650047005500490044007300000050008A
:100520007B0039004400420037004600310046009D
:1005300044002D0037004500370041002D003400F5
:100540003000300038002D00390033003600420002
:100550002D003600420041003600430031003900D2
:10056000410033003000380063007D0000000000CF
:100570001B0301636F6E6669677572652E6572672E
:100580006F646F782D657A2E636F6D000501090227
:10059000A10185020901A10005091901290515001C
:1005A00025019505750181029501750381010501FC
:1005B000093009311581257F9502750881060938B2
:1005C0001581257F950175088106050C0A380215ED
:1005D00081257F950175088106C0C005010980A1AC
:1005E00001850319012AB700150126B70095017589
:1005F000108100C0050C0901A101850419012AA080
:1006000002150126A002950175108100C00501099F
:1006100006A1018505050719E029E71500250195C3
:1006200008750181020507190029EF1500250195BC
:10063000F0750181020508190129059505750191DB
:1006400002950175039101C005010906A101050785
:1006500019E029E71500250195087501810295012A
:10066000750881010507190029FF150026FF00956F
:100670000675088100050819012905950575019180
:1006800002950175039101C009025200030100A007
:10069000FA09040000010301010009211101000110
:1006A0002240000705810308000A09040100010334
:1006B00000000009211101000122BC00070582038E
:1006C00020000A0904020002FF000000070583035E
:1006D0004000050705040340000512011002000058
:1006E0000008EDFE071301000102030104033000BE
:1006F000000016034500720067006F0064006F0081
:100700007800200045005A00000008035A005300FA
:100710004100000004030904050F3900021C100504
:1007200000DF60DDD88945C74C9CD2659D9E648AF8
:100730009F00000306B20045001810050038B608F7
:1007400034A909A0478BFDA0768815B66500014243
:10075000000011241FBECFEFDAE0DEBFCDBF24E0E2
:10076000A4E3B2E001C01D92A131B207E1F712E0AB
:10077000A0E0B1E0EAEFF9E502C005900D92A433E4
:10078000B107D9F70E94BD240C94B52C0C9400003D
:10079000E8EDF0E080818E7F80831092E20010927D
:1007A000DA001092E100A0EEB0E08C9181608C93B1
:1007B00080818F77808319BCA7EDB0E08C918E7F0C
:1007C0008C9380818F7E80831092D703089520912F
:1007D000E4003091E50095E6A9012091EC00822F1C
:1007E000817020FF06C08091E80080FF06C080E095
:1007F00008952091E80022FD1AC080910304882307
:1008000089F0853089F08091EB0085FD0FC0209143
:10081000E4003091E50042175307F9F29150E1F6F8
:1008200084E0089582E0089583E0089581E00895CA
:10083000EF92FF920F931F93CF937C018B010E9445
:10084000E703C82F882371F08C2FCF911F910F9150
:10085000FF90EF900895F70181917F018093F1005F
:10086000015011090115110579F38091E80085FD0A
:10087000F2CF8091E8008E778093E8000E94E70332
:10088000882381F3C82FE0CF8091050487FF13C030
:100890008091E80082FF06C08091E8008B7780930A
:1008A000E80004C0809103048111F2CF0895809183
:1008B00003048823D9F38091E80080FFF8CF80916A
:1008C000E8008E77ECCF982F9093E900242F762FB5
:1008D00050E0891731F07091EC002091ED005091BB
:1008E000F00021FD07C09F5F973071F78093E9000A
:1008F00081E008953091EB003E7F3093EB00309122
:10090000ED003D7F3093ED003091EB00316030938E
:10091000EB007093EC002093ED005093F0002091D9
:10092000EE0027FDE0CF80E00895CF92DF92EF92B6
:10093000FF920F931F93CF93DF93C8EDD0E0888190
:100940008F7E8883E7EDF0E080818160808384E0A2
:1009500082BF81E08093D70388818E7F888302EEF7
:1009600010E0F80110821092DA0081EEC82ED12C2E
:10097000F601108288818F778883888180688883D8
:1009800088818F7D888319BC10920304109204041F
:10099000109202041092010490EEE92EF12CF7015E
:1009A00080818B7F808388818160888342E060E0E2
:1009B00080E00E946304F60180818E7F8083F801CD
:1009C000808181608083808188608083F70180815D
:1009D0008E7F8083888180618883DF91CF911F9192
:1009E0000F91FF90EF90DF90CF900895FC018091E0
:1009F0000B0490910C0486179707A0F06115710500
:100A000029F48091E8008E778093E80090E06115EA
:100A1000710551F4911108C08091E80082FF35C042
:100A200080E00895BC01F2CF809103048823C9F1CE
:100A30008530C9F18091E80083FD31C08091E800E4
:100A400082FDEACF8091E80080FFE1CF8091F30042
:100A50002091F200382F6115710519F02830310509
:100A600058F091E02830310509F090E08091E800DD
:100A70008E778093E800CBCF84918093F1003196FC
:100A8000615071092F5F3F4FE6CF809103048823A7
:100A900041F0853041F08091E80083FFBDCF81E0D7
:100AA000089582E0089583E00895FC0180910B048D
:100AB00090910C0486179707A0F06115710529F431
:100AC0009091E8009E779093E80090E061157105A1
:100AD00051F4911108C08091E80082FF34C080E099
:100AE0000895BC01F2CF809103048823C1F18530C1
:100AF000C1F18091E80083FD30C08091E80082FD63
:100B0000EACF8091E80080FFE1CF8091F30020914F
:100B1000F200382F6115710519F02830310558F0B1
:100B200091E02830310509F090E02091E8002E771F
:100B30002093E800CBCF81918093F100615071093F
:100B40002F5F3F4FE7CF80910304882341F085302A
:100B500041F08091E80083FFBECF81E0089582E0FC
:100B6000089583E0089580910304843011F482E0B5
:100B7000089581E0089508958091E00308952091FB
:100B80000304243099F423E02093E90070E050E05E
:100B900040E00E941804882321F01092D50310929F
:100BA000D6038091E8008E778093E80008959091B5
:100BB000BC03803F41F48091BD0387FD1092BD03CB
:100BC000992371F00895813F29F48091BD0318168F
:100BD000ACF3F6CF823F81F497FFF2CF1092BC03C3
:100BE0008091BD039091BE03892B9091BF03892B07
:100BF00049F71092B7030895833F19F4191674F357
:100C0000DFCF893F39F48091BE031816CCF61092DD
:100C1000BE03D6CF8A3F29F48091BE0387FFD0CF91
:100C2000F6CF8B3F39F48091BF0387FFC9CF109275
:100C3000BF03C6CF8C3F29F48091BF031816BCF3C5
:100C4000BFCF843F31F48091BB038E7F8093BB0381
:100C5000B7CF853F21F48091BB038D7FF7CF863FCF
:100C600021F48091BB038B7FF1CF873F21F48091EA
:100C7000BB03877FEBCF883F21F48091BB038F7E3E
:100C8000E5CF8D3F31F480917E038E7F80937E038C
:100C900097CF8E3F21F480917E038D7FF7CF8F3FDA
:100CA00009F08ECF80917E038B7FF0CF80917E0301
:100CB00080FD1AC081FD14C082FD14C08091B7036D
:100CC000882391F08C3370F427E0829FC0011124B7
:100CD0006CE370E00E945C2A862F672B29F0089550
:100CE00083E0089587E0089581E0089580917E0370
:100CF00080FD16C081FD16C082FD18C08091B7032B
:100D0000882391F08C3390F423E2829FC001112458
:100D10006CE370E00E945C2A862F672B49F00895EF
:100D200088E0089581E1089585E0089583E20895BB
:100D300081E00895803F31F40E947606819580938A
:100D4000BD030895813F19F40E947606F8CF823FD3
:100D500031F40E94760681958093BC030895833F09
:100D600019F40E947606F8CF893F29F40E945606AE
:100D70008093BE0308958A3F21F40E945606819510
:100D8000F7CF8B3F31F40E94560681958093BF03C5
:100D900008958C3F19F40E945606F8CF843F31F431
:100DA0008091BB0381608093BB030895853F21F44C
:100DB0008091BB038260F7CF863F21F48091BB0313
:100DC0008460F1CF873F21F48091BB038860EBCF33
:100DD000883F21F48091BB038061E5CF8D3F31F4E2
:100DE00080917E03816080937E0308958E3F21F47D
:100DF00080917E038260F7CF8F3FB9F780917E03A9
:100E00008460F1CF9C014FB7F89480917A03909160
:100E10007B03A0917C03B0917D034FBF821B930B9A
:100E20000895209123012223C9F02091970327FFE1
:100E300015C0E62FE695E695E695EE31D8F4E80F75
:100E4000F92FF11D677021E030E001C0220F6A9593
:100E5000EAF720958281282322830895FC013296A7
:100E600008962191621303C0DF0111971C92E817C5
:100E7000F907B9F70895209123012223C1F02091A9
:100E8000970327FF14C0E62FE695E695E695EE3129
:100E9000F8F4E80FF92FF11D677021E030E001C090
:100EA000220F6A95EAF78281822B82830895FC01E2
:100EB00032962FEF30E04191641751F02F3F19F433
:100EC000411101C0232F3F5F3630A9F72F3F09F4AE
:100ED0000895820F911D27FD9A95FC016283089564
:100EE000CF92DF92EF92FF926C01EE24FF2420E07C
:100EF000C114D104E104F10419F0C701B60120E1E5
:100F0000C72ED82EE92EFF24C114D104E104F10428
:100F100019F0285FC701B6016B017C0154E0F6941B
:100F2000E794D794C7945A95D1F7C114D104E1043A
:100F3000F10419F02C5FC701B6016B017C0142E09E
:100F4000F694E794D794C7944A95D1F7C114D10485
:100F5000E104F10419F02E5FC701B601969587955B
:100F600077956795672B682B692B09F02F5F822F88
:100F7000FF90EF90DF90CF900895809175038111DD
:100F80001092750308958091740390917303892BD7
:100F900090917203892B8093340290917503992369
:100FA000A1F0892B8093340280912301882341F1A1
:100FB0008091970387FF24C08EE1E6E3F2E090E0A2
:100FC000815000F591110E94BD07E0919A03F091C4
:100FD0009B033097E1F080912301882359F08091A1
:100FE000970387FF07C0809134028093350285E024
:100FF000809334020280F381E02D84E392E009942F
:1010000086E0DBCF21912223D9F29F5FD9CF0895CB
:10101000E92FEE0FE90FEE0F8E0F982F9770869540
:101020008695869525E0829FF0011124E65CFC4FB1
:1010300050E040E080E0219130E0092E02C036957A
:1010400027950A94E2F721703327042E01C0220F5E
:101050000A94EAF7822B4F5F5F4F4530510559F7ED
:101060000895E92FEE0FE90FEE0F8E0F982F97706E
:1010700041E001C0440F9A95EAF7869586958695DA
:1010800095E0899FF0011124E65CFC4F30E020E000
:1010900070E05191DF011197CB01022E02C09695AD
:1010A00087950A94E2F781708195852784238527A7
:1010B0008C932F5F3F4F2530310559F7089580916C
:1010C000390390910803981301C008958F5F8770CA
:1010D000FACF882341F08095909173038923809300
:1010E00073030C94C3070895882339F09091730318
:1010F000982B909373030C94C3070895882341F0B1
:101100008095909174038923809374030C94C30792
:101110000895882339F090917403982B9093740369
:101120000C94C30708952091EC023091ED0228172A
:10113000390771F09093ED028093EC02E0919A03ED
:10114000F0919B03309721F00084F185E02D099404
:1011500008952091EA023091EB022817390771F0C7
:101160009093EB028093EA02E0919A03F0919B0343
:10117000309721F00680F781E02D09940895E091E1
:101180009A03F0919B03309721F00190F081E02DBC
:10119000099480E00895FA01811101C0FB010994CE
:1011A0008091D803982F9E7F29F48170826080936C
:1011B000D80308958635E8F381708465F8CFAF923F
:1011C000BF92DF92EF92FF920F931F93CF93DF9323
:1011D000082F162FE901E42FF0E0E455FF4F6111CD
:1011E00011C0E4915E2F4E2F4983E8835A831B82FE
:1011F000DF91CF911F910F91FF90EF90DF90BF9003
:10120000AF900895E62EF12C4491D42EE42FF0E017
:1012100026E0829FC00111242FEF30E0B9010E9427
:10122000482A802F90E0880F991F55E5569FD001DE
:10123000579FB00D11248A1B9B0B982F990F890F74
:101240005901AE18BF08AE9ED001AF9EB00DBE9E34
:10125000B00D11245B2F189F80011124012F11273D
:101260005901A01AB10AAE9E8001AF9E100DBE9E1C
:10127000100D11245901A81AB108AE9CC001AF9CF1
:10128000900DBE9C900D1124892F9927281B390B96
:101290002E9FC0012F9F900D3E9F900D1124E92F8E
:1012A00062307105A1F050F46115710509F49CCF0D
:1012B0006130710581F0EB2F512F96CF64307105AD
:1012C00069F080F06630710509F48ECFF4CFE42F19
:1012D0004B2F592F89CFE42F412F86CFEB2F542F3F
:1012E000492F82CF4B2F5D2DE12F7ECF9091970319
:1012F00092FF06C0282F28712830F9F4877F846078
:1013000093FF06C0282F28712831F1F4877E84616D
:101310002091980320FF06C0382F38713830D9F457
:10132000877F816021FF06C0282F28712831D1F4E2
:10133000877E816194FD877E0895282F2471243053
:10134000F9F68B7F8860DCCF282F2471243101F7D8
:101350008B7E8861DDCF382F3171313019F78E7F68
:101360008860E0CF282F2171213121F78E7E88619E
:10137000E1CFCF93DF93972F70E026E0929F600D2F
:10138000711D1124FB0134E5839FE00DF11D112433
:10139000EE0FFF1FEF54FD4FC591D491CE01C2381F
:1013A000D105B9F1E8F5C133D10509F499C050F57B
:1013B000C932D10509F48DC0CA32D10509F497C0EC
:1013C000C11542E5D40708F0C4C0C11521E5D20714
:1013D00008F038C1C83ED10508F09DC0C03ED10517
:1013E00068F5C83AD10508F089C0C53AD10508F0BA
:1013F00005C1C130D10511F1209709F443C02497EC
:10140000E8F440C0C533D10509F45CC0C933D10547
:10141000B9F620919703237089F080EE90E00EC01A
:10142000C33ED10591F168F4C03ED105F9F0C23E4A
:10143000D10531F62091970322FD20C0DF91CF9195
:101440000895C63ED10561F1C73ED10581F1C43E84
:10145000D10509F0B5CF2091980321FFEFCF8091FE
:10146000970384FD0FC087EE90E0E8CF20919703AB
:1014700020FD19C13091980330FFE0CF83EE90E05A
:1014800024FFDCCF90E080E0D9CF2091970322FDAC
:101490000DC13091980330FDC0CF24FFCFCFF2CFE4
:1014A0002091970323FFCACF24FDECCFDCCF2091FE
:1014B000970323FDFEC03091980331FFEECF84EEF9
:1014C00090E0BCCF2091970325FFB8CF89E290E050
:1014D000B5CF2091970325FFB1CF85E390E0AECF44
:1014E0002091970326FFAACF8AE290E0A7CF209110
:1014F000970326FFA3CF81E390E0A0CFCF3BD10598
:1015000008F6C85AD0E0CC0FDD1FCA5FDD4F8881D6
:101510009981946493CFC11530E2D30760F4C1156B
:1015200041E0D40708F08ACFCE019065C03FD105D5
:1015300008F084CFA7CFC11580E4D80708F4A2CF64
:10154000C11590E5D90708F061C0CE019F70906A7F
:1015500075CFC11526E5D20718F5C11535E5D307B6
:1015600008F086C0C11544E5D40708F07CC09C2F64
:1015700096959695AE0143705527C115D34508F44D
:1015800066C021E030E002C0220F331F4A95E2F727
:1015900040E2949FC0011124822B932B9A684ECF76
:1015A000C1159AE5D90778F4C11529E5D20708F0E5
:1015B00069C0C11538E5D30708F464CF9C2F88278C
:1015C000806F906A3BCFC1154BE5D40708F45ACF22
:1015D000C1158CE5D80708F462C0CE01905681157C
:1015E000904208F04FCF8D2F8F710E94760990E0C6
:1015F000982F882788279F718C2B42C0C55AD0E02E
:10160000CD5FDD4F888190E0906418CF9E01E4E0CB
:1016100036952795EA95E1F723708C2F8695869568
:10162000837030E2839FC0011124922BC37021E0AC
:1016300030E002C0220F331FCA95E2F7822B932BB2
:101640009C68FCCE9C2F8827816F906AF7CE21E0A2
:1016500030E002C0220F331F4A95E2F740E2949F28
:10166000C0011124EBCF9C2F8827846F906AE6CEAF
:101670008C2F0E94760990E0982F882788279F71E9
:101680009062DCCE8C2F8F700E94760934E0D69564
:10169000C7953A95E1F7CF709C2F9069CFCECE01D8
:1016A00099279066CBCE89E390E0C8CE82EE90E099
:1016B000C5CE86EE90E0C2CEBF92CF92DF92EF927F
:1016C000FF920F931F93CF93DF938C01C090D003B1
:1016D000D090D103E090D203F090D30380917603B1
:1016E00090917703A0917803B0917903C82AD92A01
:1016F000EA2AFB2ACFE1D0E0BC2ED701C6010C2E8E
:1017000004C0B695A795979587950A94D2F780FD62
:101710000EC0219788F7B12C8B2DDF91CF911F91AF
:101720000F91FF90EF90DF90CF90BF900895B80198
:101730008C2F0E94B909019761F3EECFCF93DF930D
:10174000EC010E945C0BBE01DF91CF910C94B909B2
:101750000E949E0B292F2F7092959F7092509E3061
:1017600078F4E92FF0E0E954F34D0C94702A803FAF
:1017700019F020F4883E20F481E00895843FE1F3DD
:1017800080E00895883EC0F3813FD1F7F5CF822FE6
:10179000869586958695089527982F98089526987A
:1017A0002E98089525982D98089556985E98089536
:1017B000279A2F9A0895269A2E9A0895259A2D9A57
:1017C0000895CF92DF92EF92FF92CF936B017C014D
:1017D0000E947007C82F0E94D50B0E94D20B0E9456
:1017E000CF0B0E94CC0BC150C73040F4EC2FF0E07F
:1017F000EB53F34D0C94702A0E94DE0BC701B60127
:10180000CF91FF90EF90DF90CF9008950E94DE0B74
:101810000E94DB0BF3CF0E94DE0B0E94D80BEECFB1
:101820000E94DE0B0E94DB0BF8CF84B1807F84B96D
:1018300085B1807F85B98AB1837F8AB98BB1837F77
:101840008BB93E984698089580B38C7080BB81B365
:10185000836F81BB0895CF93DF9300D00F92CDB7F4
:10186000DEB790910304943019F589837B836A83F2
:1018700082E08093E9008FEF9091E800815095FD20
:1018800006C095ED9A95F1F700008111F5CF809192
:10189000E80085FF0DC050E040E063E070E0CE015D
:1018A00001960E9418048091E8008E778093E800EA
:1018B0000F900F900F90DF91CF910895CF93DF930A
:1018C000EC010E94B305823011F0843031F4BE0186
:1018D00084E0DF91CF910C942B0CDF91CF91089590
:1018E000BC0183E00C942B0CCF93DF93EC010E949E
:1018F000B305823011F08430F9F482E08093E9007E
:101900008FEF9091E800815095FD06C095ED9A9576
:10191000F1F700008111F5CF8091E80085FF0CC040
:1019200050E040E066E070E0CE010E941804809133
:10193000E8008E778093E800DF91CF910895CF93F0
:10194000DF93EC010E94B305823011F08430B9F5C9
:10195000809123018823B1F18091970387FF32C0E2
:1019600060E282E08093E9008FEF9091E80081507F
:1019700095FD06C095ED9A95F1F700008111F5CF20
:101980008091E80085FF1BC08091230170E050E04A
:1019900040E0811104C050E040E068E070E0CE011A
:1019A0000E9418048091E8008E778093E80080E21E
:1019B000FE01A1EEB3E001900D928A95E1F7DF916F
:1019C000CF91089568E081E0CDCFEF92FF920F9321
:1019D0001F93CF93DF930E94D50B0E94D20B0E94DE
:1019E000CF0B0E94CC0B88E8E82EF12C8FEF90E013
:1019F000F701918380830AE810E0F80191838083E6
:101A0000CCE8D0E0998388830E94DE0BFFEF20E7CB
:101A100082E0F15020408040E1F700C000000E94C9
:101A2000DB0B9FEFE0E7F2E09150E040F040E1F7A0
:101A300000C000000E94D80B2FEF80E792E02150F9
:101A400080409040E1F700C000000E94D20BEFEF11
:101A5000F0E722E0E150F0402040E1F700C0000054
:101A60000E94CF0B8FEF90E7E2E081509040E04082
:101A7000E1F700C000000E94CC0B809185038770C5
:101A8000FFEF8F9FC00111249595879595958795B8
:101A90009927F70191838083F8019183808399834B
:101AA00088830E94D50B0E94D20B0E94CF0BDF913E
:101AB000CF911F910F91FF90EF900C94CC0BCF938F
:101AC00084E090E00E940A2CC82F81E290E00E94FE
:101AD0000A2C982F8C2FCF910895CF92DF92EF92FE
:101AE000FF926B017C010E94D008B701A60188E03B
:101AF00090E0FF90EF90DF90CF900C94302C80918D
:101B0000DC03833018F48F5F8093DC036091D8038B
:101B10007091D9038091DA039091DB030C946D0DE1
:101B20008091DC03882319F081508093DC0360915D
:101B3000D8037091D9038091DA039091DB030C9460
:101B40006D0DE8EDF3E083E0808311828FEF8283F7
:101B50008383148260817181828193810C946D0DE5
:101B60006FEE7EEF90E080E00E943C2C60E082E02F
:101B700090E00E941E2C60E083E090E00E941E2C0A
:101B800010927603109277031092780310927903E3
:101B900060E084E090E00E941E2C60E081E290E032
:101BA0000E941E2C60E085E090E00E941E2C60E008
:101BB00086E090E00E941E2C6FEF87E090E00E948C
:101BC0001E2C40E050E0BA0188E090E00E94302CEA
:101BD00060E08DE090E00E941E2C40E050E0BA01F1
:101BE00088E190E00E94302C60E087E190E00E9464
:101BF0001E2C40E050E0BA018CE190E00E94302CB5
:101C000060E080E290E00E941E2C1092850310920A
:101C10008603109287031092880384E0806180938A
:101C200085034091850350918603609187037091ED
:101C300088038FE090E00E94302C40E050E0BA0131
:101C400083E190E00C94302CCF93C82F873070F54F
:101C50008091170190911801892B89F564E670E055
:101C600080E40E947B299093180180931701892BAF
:101C7000D1F464E670E082E10E94D72990931801C4
:101C800080931701892B79F481E090E001C0880FDF
:101C9000CA95EAF764E670E080950E94D729909390
:101CA000180180931701CF910C942A2A8A30B9F039
:101CB00040F4883071F0893079F0209A2898CF91DB
:101CC00008958C3091F070F08D30B9F73E9A4698B7
:101CD000F6CF219A2998F3CF229A2A98F0CF239A07
:101CE0002B98EDCF529A5A98EACF539A5B98E7CF48
:101CF000CF93DF938091D80380FD0BC0E1E6F2E043
:101D00001182108212821382349652E0ED39F50767
:101D1000B9F7C1E6D2E0FE01928120813181892F9D
:101D2000291708F4822F381708F4832F8383381B70
:101D30003183281B2083981B9283349682E0ED39EF
:101D4000F80751F70E94752964E670E084E80E9464
:101D50007B2964E670E088810E94D72964E670E000
:101D600089810E94D72964E670E08A810E94D72980
:101D700064E670E08B810E94D729249692E0CD39E9
:101D8000D90739F70E942A2A579A3BB13F772BB1DE
:101D900020684FB7F89481E692E0FC015191CF01A1
:101DA00068E02BB9000000C057FF3BB9550F000099
:101DB00000C000C000C03BB900C06A9591F7F2E0D6
:101DC0008D399F0751F74FBF8FE594E00197F1F7E9
:101DD00000C00000DF91CF9108958F929F92AF9243
:101DE000BF92CF92DF92EF92FF920F931F93CF9308
:101DF000DF93FC01B280948081E08483CDE9D2E05E
:101E000001E612E08BE4A82E88248394EE24EA9461
:101E1000F12C2BE4C22ED12C91101DC01B821A82F2
:101E200098014A81698188810E94DF0825960C5FAC
:101E30001F4F82E0C83ED80779F7DF91CF911F91FD
:101E40000F91FF90EF90DF90CF90BF90AF909F9059
:101E50008F900C94780E2B81222309F121502B8333
:101E60003C818A2D821B311101C0822F9091DB03AE
:101E7000899FC0011124B6010E94482A6A8321115A
:101E800004C0332311F01C82AB8222E02B1540F2F8
:101E90008091D90388838091DA038983C1CF0E941E
:101EA000C22A823091400CF0BBCF82E08B15C0F487
:101EB0000E94C22AB7010E945C2A888322E02B1567
:101EC00090F40E94C22A2091DA032695622F70E0D6
:101ED0000E945C2A280F29831A82AB828C82A0CFB1
:101EE0008091D903EACF2091DA03F5CFEF92FF92E8
:101EF0001F93CF93DF93EC0181E6E82E82E0F82E6A
:101F000010E08C8197014091DB036091DA03810F2F
:101F10000E94DF081F5E84E0E80EF11C1F3F89F776
:101F20000E94780E9A818C8190FF08C08F5F8C830D
:101F3000DF91CF911F91FF90EF9008958150F7CFDF
:101F4000BF92CF92DF92EF92FF920F931F93CF93A6
:101F5000DF93FC018281DD24DA9480FD02C0DD2460
:101F6000D39401E612E0D0E0C0E02FE0B22EF801F9
:101F7000118210821282138294E0E92EF12CC12C7E
:101F800080915E028C0D80310CF43DC06B2D0E945F
:101F90003A2A892F082E000C990B8C179D0791F473
:101FA0008091DB038E9DA0018F9D500D11245595CE
:101FB00047955595479598016091DA038091D9032B
:101FC0000E94DF08CD0CF1E0EF1AF108C9F6219666
:101FD0000C5F1F4FCF30D10551F60E94780E8091D3
:101FE0005E0291E0D91215C0811111C08EE080937C
:101FF0005E02DF91CF911F910F91FF90EF90DF90E4
:10200000CF90BF90089587FFC5CF815FC3CF815028
:10201000EECF90E00196BE010E945C2AE8CF0F93BC
:102020001F93CF93DF93C1E6D2E0FE0111821082AD
:1020300012821382349682E0ED39F807B9F710E086
:1020400000E080915F02082E000C990B0817190719
:102050008CF180911601082E000C990B80179107C6
:102060004CF19E014091DB036091DA038091D9032A
:102070000E94DF080F5F1F4F24960F30110509F7EC
:102080000E94780E8091150190915F02980F9093B5
:102090005F0220911601280F20931601121614F4E6
:1020A0009E301CF0819580931501DF91CF911F9197
:1020B0000F910895198218821A821B82DBCFEF924A
:1020C000FF920F931F93CF93DF93EC018C819D813F
:1020D0000196817099279D838C8381E6E82E82E0AA
:1020E000F82E10E005E5812F86952C813D81820F29
:1020F000932F911D817097014091DB036091DA036A
:10210000809F802D11240E94DF081F5F84E0E80E6D
:10211000F11C1F3041F7DF91CF911F910F91FF907C
:10212000EF900C94780EEF92FF920F931F93CF9342
:10213000DF938C01C1E6D2E0F12CE12CF80194810F
:102140006091DA038091D903F7E0EF16F104FCF413
:102150009923F9F09E014091DB030E94DF082FEFE5
:10216000E21AF20A24968FE0E816F10439F70E9489
:10217000780EF801848190E001968170992784831C
:10218000DF91CF911F910F91FF90EF9008959923C8
:1021900009F39E0140E0E1CF9091D80390FF0DC07C
:1021A000E1E6F2E08183608342831382349692E019
:1021B000ED39F907B9F70C94780E08950F931F9332
:1021C000CF93DF9300D000D0CDB7DEB78C018091E4
:1021D000600281110AC09E012F5F3F4F4FEF6FEFEA
:1021E0000E94DF088A8180936002F8016481613077
:1021F00069F08091600240E0662361F040E0623067
:1022000011F44091600280E060E004C060916002DF
:1022100040E080E00E94CC10F801848190E00196BB
:1022200063E070E00E945C2A84830F900F900F900F
:102230000F90DF91CF911F910F910895CF93DF936E
:1022400000D000D0CDB7DEB79091D80390FF0AC080
:102250009E012F5F3F4F0E94DF084B8169818A8179
:102260000E94CC100F900F900F900F90DF91CF91A4
:102270000895CF93DF93EC01EC81F0E0EF54FE4F33
:102280004491E8EDF3E0628181810E941E118C810E
:102290008F5F8C83DF91CF910895CF93DF93EC0113
:1022A000E8EDF3E0438162818C810E941E118C81F4
:1022B0008F5F8C83DF91CF9108955F926F927F92B1
:1022C0008F929F92AF92BF92CF92DF92EF92FF9246
:1022D0000F931F93CF93DF9300D000D0CDB7DEB71D
:1022E000182F762E042F622E9091D80390FF29C0CC
:1022F000E92FE695AE2FB0E0A05DBE4F8C918093A4
:10230000B1039E7F923089F59E012F5F3F4F812F51
:102310000E94DF084B8169818A810E94CC10109352
:10232000D9037092DA030093DB03662051F06091C9
:10233000D8037091D9038091DA039091DB030E9456
:102340006D0D0F900F900F900F90DF91CF911F9117
:102350000F91FF90EF90DF90CF90BF90AF909F9044
:102360008F907F906F905F900895823019F4009164
:10237000DB03D5CF863019F41091D903D0CF893043
:10238000D9F3893161F6E9518E2F8170582EE69587
:10239000F0E0E455FE4FA590B490BB2481E6E82E12
:1023A00082E0F82ED12CC12C9FE0892E912CC60101
:1023B000B4010E94482A812F511013C0860F970143
:1023C000402F672D0E94DF08CA0CDB1C84E0E80E5A
:1023D000F11C8DE9E81682E0F80649F70E94780EB4
:1023E0009ECF861BECCFE8EDF3E043812CE0421B4F
:1023F00008F440E021E0628181810C945D11E8EDF8
:10240000F3E043812CE0420F08F44FEF21E06281BA
:1024100081810C945D11E8EDF3E062812FEF621B86
:1024200008F460E021E0438181810C945D11E8EDC6
:10243000F3E062812FEF620F08F46FEF21E0438138
:1024400081810C945D11E8EDF3E0818121E043810D
:1024500062818C500C945D11E8EDF3E0818121E004
:1024600043816281845F0C945D1180E290E09093DF
:1024700018018093170180915D0281110EC00E94A6
:10248000752981E080935D022FEF83ED90E3215069
:1024900080409040E1F700C0000064E670E080E416
:1024A0000E947B299093180180931701892B09F0D2
:1024B0004EC064E670E080E00E94D7299093180136
:1024C00080931701892B09F042C064E670E080E038
:1024D0000E94D7299093180180931701892BB9F591
:1024E00064E670E08FE30E94D729909318018093EF
:1024F0001701892B61F50E942A2A64E670E080E4C6
:102500000E947B299093180180931701892BF9F47D
:1025100064E670E08CE00E94D729909318018093C4
:102520001701892BA1F464E670E080E00E94D729AE
:102530009093180180931701892B49F464E670E0A9
:102540008FE30E94D72990931801809317010E946E
:102550002A2A809117010895CF93873008F040C050
:102560008091170190911801C0E0892B71F464E605
:1025700070E080E40E947B299093180180931701FA
:10258000892B31F0C0E00E942A2A8C2FCF91089528
:1025900064E670E083E10E94D7299093180180934C
:1025A0001701892B79F764E670E081E40E947B29AA
:1025B0009093180180931701892B21F784E690E00E
:1025C0000E94062A97FF05C0909318018093170177
:1025D000D9CFC82FC0951092180110921701D3CFF0
:1025E000CFB18FB1869586958C73C3708C2BC82F15
:1025F000C095CBCF78941F921FB61F9211248F9352
:102600009F93AF93BF9380917A0390917B03A091A6
:102610007C03B0917D030196A11DB11D80937A03C7
:1026200090937B03A0937C03B0937D03BF91AF9104
:102630009F918F911F901FBE1F9018952FB7F894F0
:1026400080917A0390917B03A0917C03B0917D03EC
:102650002FBF0895E0919A03F0919B03309749F0C2
:1026600082E08093BA030480F581E02D8AEB93E049
:1026700009950E941E139093B6038093B5030895A5
:1026800010927303109272030E94C30786E0EAEB74
:10269000F3E0DF011D928A95E9F71092B7031092DB
:1026A0007E030E942A1390E080E00E94A90890E037
:1026B00080E00C949308CF92DF92EF92FF92CF9339
:1026C000DF9300D000D0CDB7DEB70E94E10B6B01E5
:1026D0007C018091D403882321F08091D50381115E
:1026E00015C0C092D003D092D103E092D203F092F1
:1026F000D3030E9440130F900F900F900F90DF9123
:10270000CF91FF90EF90DF90CF900895198282E0F3
:102710008A83C701B6010E9470078B838EEF8C837A
:1027200064E0CE0101960E94BF05DBCF0F931F939B
:1027300041E050E060E070E004C0440F551F661FA8
:10274000771F8A95D2F7CB01BA0160957095809575
:1027500090950091D0031091D1032091D203309134
:10276000D30360237123822393231F910F910C9431
:102770005B13909171038095892380937103282FB7
:10278000277071F4282F082E000C330B92171306B4
:1027900039F08595859585950E9496131092710361
:1027A00008950F931F9341E050E060E070E004C093
:1027B000440F551F661F771F8A95D2F78091D0036B
:1027C0009091D103A091D203B091D3038A019B01D0
:1027D000082B192B2A2B3B2BC901B8011F910F91F4
:1027E0000C945B1360937603709377038093780364
:1027F000909379030C9440131092740380912301F9
:10280000E6E3F2E0882359F08091970387FF07C041
:102810008EE1DF011D928A95E9F70C94401386E062
:10282000F8CF1F93CF93DF93CDB7DEB7AA970FB63C
:10283000F894DEBF0FBECDBF85E094E02091F1009B
:10284000FC012193CF01F4E08D309F07B9F780910F
:102850000604893009F444C018F5823009F4B7C081
:10286000833009F46CC0813031F580910504813AE0
:1028700011F58091E800877F8093E800809109043A
:1028800090910A04892B41F560E281EE93E070E0BB
:102890000E9455058091E8008B778093E8000BC07B
:1028A0008B3009F469C008F481C0823409F4A0C0F7
:1028B000853409F4BAC08091E80083FF65C2809135
:1028C0000504909106049A3008F05EC2E92FF0E00A
:1028D000E453F34D0C94702A60E090E080E0D7CF91
:1028E00080910504813239F78091090490910A049E
:1028F000029708F78091E800877F8093E800809135
:10290000E80082FF17C09091F3008091F2000297D7
:1029100029F48091F1008B7F813021F48091F100C6
:102920008093E0038091E8008B778093E8000E9419
:102930004404C1CF809103048111E1CFBCCF8091C9
:102940000504813A09F0B7CF8091090490910A04F7
:10295000892B09F0B0CF8091E800877F8093E80051
:102960008091E80080FFFCCF809123018093F100EB
:102970008091E8008E77D9CF80910504813209F0EB
:102980009ACF8091090490910A04892B09F093CF82
:102990008091E800877F8093E8000E944404809142
:1029A0000704809323010E94FC1385CF80910504C6
:1029B000813209F080CF8091E800877F8093E80022
:1029C0000E944404809108048093DF0374CF8091B7
:1029D0000504813A09F06FCF8091E800877F8093EA
:1029E000E8008091E80080FFFCCF8091DF03BECF3C
:1029F00080910504803C09F05ECF8091090490919C
:102A00000A04029739F58091070490910804892BF4
:102A100009F58091E800877F8093E8006BE170E022
:102A200080E795E00E94F60482CF80910504803C07
:102A300009F041CF8091090490910A04079751F45D
:102A40008091E800877F8093E80062EB70E08EEB76
:102A500094E0E8CF8091EB0080628093EB002BCF75
:102A6000803899F0823809F08FC1809109048F7005
:102A7000873008F089C18093E9008091EB0085FBE5
:102A8000882780F91092E90006C080910104909196
:102A90000204911182609091E800977F9093E80082
:102AA0008093F1001092F1008091E8008E7768C168
:102AB000882309F456C1823009F066C18091070469
:102AC000811159C1809109048F702FEF280F263092
:102AD00008F05AC18093E9002091EB0020FF4BC120
:102AE000933031F48091EB0080628093EB0043C11E
:102AF0009091EB0090619093EB0021E030E001C0F9
:102B0000220F8A95EAF72093EA001092EA0080915A
:102B1000EB008860EACF811137C1109107041F775D
:102B20008091E3008078812B8093E3008091E8001E
:102B3000877F8093E8000E9444048091E80080FF32
:102B4000FCCF8091E30080688093E30082E0111164
:102B500083E08093030418C18058823008F014C1C8
:102B600080910704909108048C3D23E09207A1F521
:102B700083E08A838AE289834FB7F894DE01139653
:102B800020E03EE051E2E32FF0E050935700E49163
:102B900020FF03C0E295EF703F5FEF708E2F90E053
:102BA000EA30C0F0C7968D939D932F5F243159F77B
:102BB0004FBF8091E800877F8093E8006AE270E071
:102BC000CE0101960E9455058091E8008B77809395
:102BD000E800DAC0C096E7CF4091090450910A049A
:102BE000292F33272330310569F1A0F42130310535
:102BF00009F46CC062E570E088E896E022303105A7
:102C000009F0C2C02091E800277F2093E8000E94CD
:102C1000F604DACF2132310509F440C02232310501
:102C200009F448C02F30310509F0AEC0EAE1F7E001
:102C3000E4916E2F70E088E197E06115710509F469
:102C4000A3C0E0CF992781309105C1F0009771F0C2
:102C500082309105D9F0039709F096C0ECEEF6E0CA
:102C6000E4916E2F70E08CEE96E0E7CFE4E1F7E0C0
:102C7000E4916E2F70E084E197E0DFCFEAE0F7E0C7
:102C8000E4916E2F70E08AE097E0D7CFE2EFF6E0B4
:102C9000E4916E2F70E082EF96E0CFCF41155105A1
:102CA000D1F04130510509F06FC069E070E083EB6D
:102CB00096E0A8CF4115510599F04130510509F032
:102CC00063C06CEB70E08CE895E09CCF62E170E053
:102CD0008AED96E097CF69E070E08AE996E092CFBE
:102CE00060E470E088E496E08DCF803809F04CC055
:102CF0008091E800877F8093E800809104048093AE
:102D0000F100D2CE811140C0109107041230E0F5DD
:102D10008091E800877F8093E800109304040E946C
:102D20004404112311F084E005C08091E30087FD85
:102D3000FACF81E08093030442E061EC81E00E94DD
:102D4000630442E261EC82E00E94630442E361ECCE
:102D500083E00E94630442E360EC84E00E94630429
:102D600013C080910704813079F481E0933009F039
:102D700080E0809302041092E9008091E800877F50
:102D80008093E8000E9444048091E80083FF0AC019
:102D90008091E800877F8093E8008091EB0080625B
:102DA0008093EB00AA960FB6F894DEBF0FBECDBF9E
:102DB000DF91CF911F9108951F920F920FB60F923E
:102DC00011242F933F934F935F936F937F938F9330
:102DD0009F93AF93BF93CF93DF93EF93FF93D091E4
:102DE000E900DF708091EC00C82FC17080FDC0E861
:102DF0001092E9008091F000877F8093F000789432
:102E00000E9411141092E9008091F0008860809374
:102E1000F000CD2BCF70C093E900FF91EF91DF91CF
:102E2000CF91BF91AF919F918F917F916F915F9162
:102E30004F913F912F910F900FBE0F901F901895BB
:102E40008823B1F19CEF980F913A38F4682F84E30E
:102E500092E00E9411070C94C30790E2980F9830FB
:102E600088F4877021E030E0A90102C0440F551FAB
:102E70008A95E2F7CA018095909174038923809323
:102E80007403E9CF9BE5980F933020F490E080E045
:102E90000C94A90898E5980F973120F490E080E011
:102EA0000C949308803F20F00E94D7050C942A13BD
:102EB0000895CF93C82F882309F46EC08CEF8C0F30
:102EC000813AB8F580912301882311F1809197030D
:102ED00087FF1EC0EC2FE695E695E695F0E0EC5CEA
:102EE000FD4F828190E04C2F477021E030E002C01E
:102EF000220F331F4A95E2F782239323892B89F00F
:102F00006C2F84E392E00E9411070E94C30709C05E
:102F1000E6E3F2E08191C81799F382E0EC33F80719
:102F2000C9F76C2F84E392E00E943B07CF910C9489
:102F3000C30780E28C0F883068F4C77021E030E06E
:102F400001C0220FCA95EAF780917403822B809307
:102F50007403ECCFEBE5EC0FE33040F4F0E0ED5F11
:102F6000FD4F808190E0CF910C94A908E8E5EC0F2B
:102F7000E73150F4F0E0EE0FFF1FEA5FFD4F808174
:102F80009181CF910C949308C03F30F08C2F0E9418
:102F90009A06CF910C942A13CF910895CF93C82FFE
:102FA0000E945917C93349F42FEF87EE93E021505F
:102FB00080409040E1F700C000008C2FCF910C942E
:102FC00020170F931F93CF93DF93C62FD42F022F79
:102FD000FC0182818823A1F06093FD020E941E13F0
:102FE0009093E9028093E802C77081E001C0880FE6
:102FF000CA95EAF7DF91CF911F910F910C94890840
:103000001091FD02161335C08091E8029091E902FB
:103010000E940207883C910560F5C0E2CD0F1D17A4
:10302000B9F080E2810F883040F4177081E001C070
:10303000880F1A95EAF70E947E08C83048F481E0AC
:103040009D2F977001C0880F9A95EAF70E94890812
:10305000802F0E94CE17C83098F4D77081E001C04D
:10306000880FDA95EAF7DF91CF911F910F910C94B9
:103070007E08C77081E001C0880FCA95EAF7F3CFD8
:10308000DF91CF911F910F9108956091D8036695BC
:1030900070E04BE050E08AE091E00E94FD2B892B2C
:1030A00019F481E08093B2030E941E139093AC0345
:1030B0008093AB0308959091D80390FF36C0917030
:1030C000811129C092609093D803662351F06091DA
:1030D000D8037091D9038091DA039091DB030E94A9
:1030E0006D0D6091D803669570E04BE050E08AE08A
:1030F00091E00E94FD2B892BA9F01092B20381E090
:103100008093AE0320E04091DB036091DA0380916D
:10311000D9030C945D118B3210F09465D4CF880FD5
:10312000982BD1CF0E944518EACF08951F920F9295
:103130000FB60F9211242F933F934F935F936F938A
:103140007F938F939F93AF93BF93EF93FF93809160
:10315000E10082FF09C08091E20082FF05C08091FA
:10316000E1008B7F8093E1008091DA0080FF24C032
:103170008091D80080FF20C08091DA008E7F8093FC
:10318000DA008091D90080FFB0C080E189BD82E182
:1031900089BD09B400FEFDCF81E0809303048091D6
:1031A000D703811109C00E94C8030E949504809131
:1031B000E20084608093E2008091E10080FF17C00C
:1031C0008091E20080FF13C08091E2008E7F8093A7
:1031D000E2008091E20080618093E2008091D8005B
:1031E00080628093D80019BC85E0809303048091AD
:1031F000E10084FF3EC08091E20084FF3AC080E19C
:1032000089BD82E189BD89B5982F917080FFFBCF80
:103210008091D8008F7D8093D8008091E1008F7ECF
:103220008093E1008091E2008F7E8093E2008091A4
:10323000E20081608093E20080910404882309F415
:103240005AC084E0809303040E94FC130E94BF08CC
:103250001092DE038091DD03882349F08091D8032A
:1032600081608093D80360E086950E945B180E947D
:1032700045188091E10083FF27C08091E20083FF21
:1032800023C08091E100877F8093E10082E08093FA
:103290000304109204048091E1008E7F8093E1008A
:1032A0008091E2008E7F8093E2008091E200806155
:1032B0008093E20042E060E080E00E94630480913D
:1032C000F00088608093F000FF91EF91BF91AF9183
:1032D0009F918F917F916F915F914F913F912F912E
:1032E0000F900FBE0F901F90189519BC10920304F9
:1032F0001092D70361CF8091E30087FD93E0909314
:103300000304A2CF61E00C945B18E8EDF3E0808148
:103310008160808386950C9482198091D80386956C
:10332000815009F48AE261E00C945B188091D80323
:1033300086958F5F8B3208F081E061E00C945B181A
:103340009091D80390FF07C09695981720F0961794
:1033500010F40C9496190C9482194F925F926F920C
:103360007F928F929F92AF92BF92CF92DF92EF9215
:10337000FF920F931F93CF93DF9300D000D00F9253
:10338000CDB7DEB77C01FC0183819481892B39F0B4
:103390001081D180812F8D218F3F09F0D3C60F90EE
:1033A0000F900F900F900F90DF91CF911F910F9181
:1033B000FF90EF90DF90CF90BF90AF909F908F9055
:1033C0007F906F905F904F9008950E945C0B082F44
:1033D000682F89819A810E943108E12FF0E026E070
:1033E000D29EE00DF11D112434E5039FE00DF11D87
:1033F0001124EE0FFF1FEF54FD4F059114918091A2
:10340000D403882321F08091D503811187C6F70169
:1034100082810930FDE51F0709F09CC08823C9F1AE
:103420008091850391E0980F9770887F953008F41C
:10343000892B809385038091850387702FEF829F6E
:10344000C001112495958795959587959927909317
:1034500089008093880090938B0080938A009093DA
:103460008D0080938C00409185035091860360917C
:103470008703709188038FE090E00E94302C609168
:10348000D0037091D1038091D2039091D3030E9415
:10349000E10BF7018281882309F4A8C09801215E1D
:1034A0003C452530310508F0A1C06FE1600F609305
:1034B00081038CE090E00E941E2CF70192819923F9
:1034C00009F468C61092FD020230FCE51F0708F4FB
:1034D0004AC606312CE5120738F098012A5F3C45B0
:1034E0002730310508F03FC60E945F0D9093980386
:1034F000809397030F303CE5130709F4E2C108F00D
:103500005CC108309CE5190709F4C5C108F031C158
:103510000430FCE51F0709F4B2C108F017C10230FE
:103520003CE5130709F4A3C103301C4509F4A3C10A
:10353000609197031091980384E090E00E941E2C04
:10354000612F81E290E00E941E2C0E94FC1334C087
:1035500081E1EAC50C303DE5130709F158F40B3061
:10356000EDE51E0709F095CF882331F181E00E9437
:10357000821922C00D30FDE51F0761F10E302DE5E7
:10358000120709F086CF8823B9F00E94851981E0DF
:103590000E94821921E04FEF6FEF8BE10BC088236F
:1035A00059F00E94851981E00E94821921E04FEFB5
:1035B0006FEF8CEA0E945D1180917103877009F4AE
:1035C000EECEF7018281882309F4E9CE82E00E94E1
:1035D000B913E5CE882381F30E94851981E00E940A
:1035E000821921E040E86FEF86E5E4CF17FF74C051
:1035F000882309F462CF809174038093FC021092B7
:10360000740380918103813009F441C08823D9F18A
:10361000823009F449C0843009F44DC08FE39CE93D
:103620000197F1F700C000005801E894B7F8ECE00A
:10363000CE2ED12C95010C2C02C0369527950A94DC
:10364000E2F72F7087E290E029F0822F90E02A3095
:10365000B8F54D960E94CE1794E0C91AD108ECEF48
:10366000CE16EFEFDE0631F780918103813071F1E4
:10367000882341F1823031F1843061F18091FC0284
:10368000809374031ACF82EE0E945917C7CF83E04C
:103690000E94740888E10E94591788E10E9420174F
:1036A00083E00E946908BACF82EE0E94591787E52D
:1036B0000E94CE17B3CF86EE0E94CE1788E1F8CFD6
:1036C0000697C8CF82EE0E942017D8CF8CE20E94C6
:1036D000CE17D4CF88E2FBCF033FFCE51F0739F1BB
:1036E000A0F4083D3CE51307F1F0093D8CE518070F
:1036F00051F1073D9CE5190709F0DFCE26E241EEC6
:1037000061EEC7010E94E11757CF053FECE51E07A8
:10371000B1F088F0063F2CE5120709F0CECE27E283
:1037200045EE66EEEECF27E245EE65EEEACF26E205
:1037300041EE60EEE6CF27E245EE64EEE2CF26E210
:1037400041EE62EEDECF28E241E0EFCF80919703B9
:10375000806106309CE5190709F447C08091970302
:10376000886007301C4508F440C080919703806250
:103770003CC00B30FCE51F0709F49BC068F409301E
:103780003CE5130709F48BC00A301C4509F0D0CE84
:10379000809197038C6029C0809197038B7F0D30B7
:1037A0009CE5190711F1809197038D7F0E301C4520
:1037B000E0F080919703877F18C00A3FFCE51F0760
:1037C00009F461C060F502313CE5130709F481C0DA
:1037D00078F400319CE5190709F477C080919703CC
:1037E0008F7B01311C4509F0A3CE80939703A0CEB7
:1037F0000431FCE51F0709F47AC008F470C00531F4
:103800001C4509F095CE8091970382FB992790F98A
:1038100021E0922790FB82F990FB83F9E6CF0D3FE0
:103820008CE5180709F449C070F40B3FECE51E075E
:1038300071F1809198038E7F0C3F1C4509F078CE82
:103840008093980375CE0F3F2CE5120709F44BC007
:1038500060F101151D4509F06BCE80919803982FFA
:10386000909591708E7F892B90FB81F9E9CF8091A3
:1038700097038160BACF809197038260B6CF809121
:1038800097038460B2CF809198038160D9CF8091F3
:1038900098038260D5CF809197038064A6CF0E9461
:1038A000FC13809197038068A0CF80919803836078
:1038B000C7CF809197038E7F98CF809198038D7F9B
:1038C000BFCF809197038F7E90CF809197038F7D9C
:1038D0008CCF0E94FC13809197038F7786CF8091C5
:1038E0009703837F82CF809198038C7FA9CF0E941A
:1038F000FC1390919703892F97FB87F9805875CF18
:10390000992309F4D1C0809174038272F801E25CBA
:10391000FC45E431F10508F072C0EA52F34D0C9415
:10392000702A8091D80380FF1BC08E7F8093D803BC
:103930006091D8037091D9038091DA039091DB03F1
:103940000E946D0D1092B2039FEFE0E7F2E09150FC
:10395000E040F040E1F700C000000E94780E2CCE5D
:103960000E94851929CE4DE859E166E979E10E9466
:10397000CB0822CE46E959E16DE879E1F8CF43E280
:1039800052E16CE272E1F3CF4CE252E163E272E1A8
:10399000EECF4BE052E167E172E1E9CF47E152E15E
:1039A0006BE072E1E4CF43EF51E16FEF71E1DFCF04
:1039B0004FEF51E163EF71E1DACF40E95DE06FE78E
:1039C0007DE0D5CF4FE75DE060E97DE0D0CF65E0F9
:1039D00082E00E94A019F0CD68E086E0FACF6EE0A8
:1039E00089E0F7CF64E18FE0F4CF67E185E1F1CFC3
:1039F00088E1BDCD62E289E1ECCF83E2B8CD0E3D36
:103A00002CE5120709F446C008303DE5130709F418
:103A100044C001151C4509F047C00E94FC139FEFEC
:103A2000E4E3FCE09150E040F040E1F700C000002A
:103A3000F89481E08093E00080E28093D8001092B7
:103A4000C9008FE19EE40197F1F700C000001DBAA4
:103A5000109268001CBC10BE1FBA10927A0010921F
:103A60006E0010926F00109271001092720010920E
:103A7000C9001092BC0014B817B81AB81DB810BA13
:103A80001092BC0015B818B81BB81EB811BA0C9427
:103A9000003F92CD0E94B00D8FCD8091D60391E072
:103AA00089278093D60388CDF7010081118199235E
:103AB00009F444C0C8010E945C0BD82E682FC801CD
:103AC0000E943108B8018D2D0E94B909082FD92E06
:103AD000B82EF701C580C2947FE0C7221281111170
:103AE00010927303809171038770C1F01123B1F0BC
:103AF0008D2D807F803449F090E2900F983070F0E7
:103B0000803619F4F6EFBF1649F082E00E94B9132F
:103B1000809171038770AA24A3948111A12C9D2CFC
:103B200092945FE095226BE0462E491408F441C060
:103B3000E92DF0E0E651F34D0C94702AC8010E9483
:103B40000808D82EBFCF2D2D2F70C22E8D2D807F2F
:103B500019F0C29440EFC4221123C9F0CC2069F0BF
:103B600080E2800F883010F0B1100BC08091740398
:103B7000C82AC09274030E94C307802F0E9459175D
:103B800018C080917303C82AC0927303F4CF802FAA
:103B90000E942017CC2069F0C094005E083010F01D
:103BA000B11057C080917403C822C09274030E9460
:103BB000C307292D2850330B2430310510F40E94FF
:103BC000BF08112379F08D2D807F803619F436EFF0
:103BD000B31641F08091FF02823009F097C283E072
:103BE0008093FF02AA20A9F08091710380FD11C08B
:103BF000F70112828595859585950E94D113C7019D
:103C00000E94AD19809171038595859585950E94D7
:103C1000961385E0F701DE01119601900D928A95C9
:103C2000E1F789819A810E9408089A81E981F0E090
:103C300026E0929FE00DF11D112434E5839FE00DF5
:103C4000F11D1124EE0FFF1FEF54FD4F859194914C
:103C5000A6CB80917303C822C0927303A8CF3D2DD9
:103C60003F70832E8D2D807F803219F0829430EF4B
:103C70008322BB2041F081E0B81631F1112381F19C
:103C8000CC2049F17ACF112391F090917503892FBF
:103C90008829C11003C00E9489088BCFE1E0CE12B1
:103CA000FACF981709F485CF8093750382CFC1109E
:103CB00006C00E94BD07882D0E947E087ACFF1E0E1
:103CC000CF1609F476CFF5CF112339F0442443946D
:103CD0004C1408F46ECF882DDECFC1106ACFEBCF25
:103CE000CC2049F329E3522EB51009C02FEF37EE4F
:103CF00083E0215030408040E1F700C00000802F79
:103D00000E94201756CF8D2D86958695837069F079
:103D1000813009F04ECF802F9D2D9370111102C07C
:103D200090E080E00E94930844CF802F9D2D9370F7
:103D3000111102C090E080E00E94A9083ACF802FC4
:103D4000112329F00E949A060E942A1332CF0E9462
:103D5000D705FACF8D2D837009F067C0111129CFD7
:103D6000202F229526952770220F220F402F4F706B
:103D700050E070E060E0022E04C0440F551F661F43
:103D8000771F0A94D2F780E090E0DC0104FF0FC0B7
:103D90008FE090E0A0E0B0E004C0880F991FAA1F58
:103DA000BB1F2A95D2F780959095A095B0952D2DA3
:103DB000269526952370223029F1D8F44090760379
:103DC000509077036090780370907903213069F008
:103DD000842B952BA62BB72BBC01CD01642175211B
:103DE000862197210E94F213E4CE442955296629A1
:103DF00077292A013B01482A592A6A2A7B2AC301CA
:103E0000B201F0CF842B952BA62BB72B40907603D5
:103E1000509077036090780370907903BC01CD01D6
:103E20006425752586259725DDCF8695112311F00C
:103E30008D2D8170882309F4BCCE202F22952695E4
:103E40002770220F220F402F4F7050E070E060E08B
:103E5000022E04C0440F551F661F771F0A94D2F725
:103E600080E090E0DC0104FF0FC08FE090E0A0E074
:103E7000B0E004C0880F991FAA1FBB1F2A95D2F774
:103E800080959095A095B0952D2D2695269523701B
:103E9000223029F1D8F44090D0035090D1036090A3
:103EA000D2037090D303213069F0842B952BA62B7D
:103EB000B72BBC01CD0164217521862197210E9479
:103EC0005B1377CE44295529662977292A013B01BE
:103ED000482A592A6A2A7B2AC301B201F0CF842BCF
:103EE000952BA62BB72B4090D0035090D103609018
:103EF000D2037090D303BC01CD01642575258625BE
:103F00009725DDCF2D2D2F70C22E112329F0822F62
:103F10000E94D113802FBFCE802F0E947E088C2D4F
:103F20000E94961346CE802F32EFB31609F452C08A
:103F30003B1578F090EFB91629F1E1EFBE1609F4C0
:103F400041C0112309F46AC0C11017CE8D2D8F71A5
:103F50003EC0F3EFBF1609F442C094EF492EB410EF
:103F6000F0CF112309F44FC00D2D0F71802F0E9447
:103F7000D11328E0029FC001112483608093710354
:103F8000802F25C01123C1F0C11013CE2D2D2F710C
:103F900061E070E080E090E004C0660F771F881F4A
:103FA000991F2A95D2F74090D0035090D10360908A
:103FB000D2037090D303A1CF552453945C1408F41A
:103FC000F8CDE4CF8D2D8F71112309F4A9CF0E9474
:103FD000D113EFCD8D2D8F711123C9F3A1CF60E0E7
:103FE00070E0CB01112309F46ACF2D2D2F7161E010
:103FF00070E080E090E004C0660F771F881F991F73
:104000002A95D2F75CCF81E00E94B91331E03C15CC
:1040100008F0CFCD82E00E94B913CBCDCC2059F06F
:10402000893309F06CCE8FEF97EEE3E0815090403A
:10403000E040E1F762CE8D2D8F7172CFE0E1E00FAD
:10404000E73008F03EC0F0E0EA50F34D0C94702ADF
:10405000112309F4AECD8091010391E0892780936B
:104060000103A7CD10930103A4CD81E08127F7CFF1
:1040700011119FCD81E0F3CF11119BCD109201035F
:1040800098CD112321F082E08093FF02F3CF80913D
:10409000FF02823021F481E08093FF028ACD8330D9
:1040A00009F087CD1092FF02E9CF112339F08091FA
:1040B0000003882381F2109200037BCDCC2059F2BB
:1040C00078CD80910003CC20A9F0882341F0809125
:1040D000010391E089278093010310920003802F50
:1040E00011114CCD0E94201786E0F70111928A959C
:1040F000E9F75FCD882309F45CCD11115ACD809189
:10410000010391E0892780930103D5CF813009F025
:1041100069CD1092FF021092010364CDF7018281F4
:104120001982811115CA82E18A83F70180818B830C
:1041300081818C838EEF8D8365E0CE0101960E9494
:10414000BF0565C985E0DE01119601900D928A9543
:10415000E1F7F701228189819A81211136C90E94F4
:104160000808082F3AC90631FCE51F0709F0C8CB3B
:10417000809174038A7A91E009F490E09093FE02B2
:1041800069E2811165E384E392E00E943B070E94AB
:10419000C30712CA06311C4509F086CC8091FE0285
:1041A00069E2811165E384E392E00E941107EFCF99
:1041B0001F93CF93DF9380910703807FA9F48091B1
:1041C0000403882389F080913903D091080360911A
:1041D000020370910303A0910503B0910603C62F5B
:1041E000C72316E0D81304C0DF91CF911F91089523
:1041F00090E0109711F0CF3F19F401968770F2CF3D
:10420000189F9001199F300D1124F901E75FFC4FB1
:1042100041814713F2CF40814613EFCF42814111D4
:10422000ECCF438154814A1B5B0B483C510528F776
:10423000809107038F70806180930703F901E25F2B
:10424000FC4F80818F708061808382E093E00E94C8
:10425000AD19DF91CF911F910C945F08AF92BF927F
:10426000CF92DF92EF92FF920F931F93CF93DF9342
:10427000CDB7DEB761970FB6F894DEBF0FBECDBFE6
:104280008C0185E0F801DE011D9601900D928A9562
:10429000E1F7F80180819181E28022E0A22E23E003
:1042A000B22E60910503709106036115710509F442
:1042B0003EC13091020340910303232F24232F3F5B
:1042C00009F435C1C380D480F0900403F601E61BE5
:1042D000F70BFF2009F4FBC020910703522F507FFA
:1042E000E83CF10508F0BBC0511178C0FE2C491321
:1042F00021C038131FC0E1101DC02F702061209312
:104300000703C5010E94AD1980910703F801858359
:104310008F2D61960FB6F894DEBF0FBECDBFDF9133
:10432000CF911F910F91FF90EF90DF90CF90BF90B2
:10433000AF900895CD2829F0282F29232F3F09F089
:1043400022C120E0F22FF170DF2E20FF3DC020912E
:1043500039034091080356E0241315C08D879E87CA
:104360008D859E850E949E0B292F22952F702230CD
:10437000F8F0243020F59F70F9F0F8019581907FD6
:10438000D9F4D12C1FC030E0529FF001539FF00DA3
:104390001124E75FFC4F6181961306C0608186138C
:1043A00003C06281E61210C02F5F3F4F2770D4CF49
:1043B0009F7011F0882329F3805E883010F3C801C4
:1043C0000E94AD19FD2CA4CFEE2009F4A1CF80915D
:1043D0000703816080930703F12C9ACF491312C021
:1043E000381310C0E1100EC0F8012583C8010E94E7
:1043F000AD1986E0F801A2E0B3E001900D928A9534
:10440000E1F786CF8D879E878D859E850E94A80BBC
:10441000882309F1EE20F9F080910703803270F0D3
:10442000209102033091030338872F831986DB869E
:10443000CA868C87CE0107960E94AD1986E0F801E6
:10444000A2E0B3E001900D928A95E1F70E94D82096
:10445000FF24F3945DCFC8010E94AD19F9CF51112B
:104460000AC082E093E00E94AD1986E0F501119246
:104470008A95E9F7B1CF49130FC038130DC0E11089
:104480000BC0F8012583C8010E94AD1986E0F50133
:1044900011928A95E9F73CCF8D879E878D859E8501
:1044A0000E94A80B8823B9F2EE20A9F2809107039D
:1044B000803220F220910203309103033A83298352
:1044C0001B82DD82CC828E83CE010196B5CFE83C83
:1044D000F105E0F6FE2CEE2009F4BDCF491316C01D
:1044E000381314C08091070380FD83CF982F907FED
:1044F00009F47FCFF8018583903F09F477CF982F97
:10450000907F905F8F70892B858370CF8D879E877A
:104510008D859E850E94A80B811190CF8091070305
:10452000816080930703C8010E94AD19F1CEEE208F
:1045300009F491CF8D879E878D859E850E94A80B5B
:10454000F82E882309F487CF86E0F801A2E0B3E0D3
:1045500001900D928A95E1F78091020390910303F7
:104560000E949E0B92959F70963051F4863F41F0C9
:104570008091010391E089278093010390930003C8
:104580000E94D820C5CE21E02E25DCCE1F93CF93EC
:10459000DF93CDB7DEB767970FB6F894DEBF0FBED7
:1045A000CDBF6D8B7E8B8F8B8E899F89892BE1F0A0
:1045B000852F84238F3F09F098C05FEF4FEF14C021
:1045C00030910103332309F44EC0E42FF0E036E0CC
:1045D000539FE00DF11D1124EE0FFF1FE55AFE4F12
:1045E00040815181822B8C931A8A198A4B8B5C8B68
:1045F00085E0FE017396DE011D9601900D928A956D
:10460000E1F786E0FE013D96DE01179601900D92DE
:104610008A95E1F7CE0107960E942E21811112C0E2
:1046200086E0FE013796DE01119601900D928A9583
:10463000E1F78A859B85892B29F08F8198858923CD
:104640008F3FC9F516E080913903909108038913D3
:1046500020C067960FB6F894DEBF0FBECDBFDF91C6
:10466000CF911F91089580958223BDCF96E0929FB0
:10467000D001939FB00D1124A75FBC4FFE0131966E
:1046800001900D929A95E1F7809308030E945F08CC
:10469000D9CF819FC0011124875F9C4F0E942E219A
:1046A0008823B9F28091390390E0019687709927A9
:1046B00080933903C8CF2091080330E0C9010196E7
:1046C00087709927409139034817190679F60E9497
:1046D000FC13109208031092390386E0E2E0F3E045
:1046E000DF011D928A95E9F7ADCF81E090E0042EBD
:1046F00001C0880F0A94EAF7A52FB0E0A251BD4F80
:104700002C913D8931115CCF322F38235BCF8F92B2
:104710009F92BF92CF92DF92EF92FF920F931F93DF
:10472000CF93DF938091170190911801892B91F01D
:1047300080915C028F5F80935C0281110BC00E94AC
:10474000351290E09093180180931701892B11F492
:104750000E94E50C29E8822E23E0922E740100E0ED
:1047600010E097E0C92EC00E802F0E94240E8C2DE1
:104770000E94240E802F0E94AC12E70199917E01C5
:10478000D12C891729F0FE0131978083DD24D39441
:104790008C2D0E94AC12F7019681891709F47AC01A
:1047A000868381E08D29182B0E94150C0F5F07303E
:1047B000C1F60E941E1360915502709156029093AB
:1047C0005602809355022091540230E0261B370B8D
:1047D000820F931F6BEF70E00E94482AE82E392F5A
:1047E000082F80935402F0905802FF2009F4A3C0D0
:1047F00010925802E0917F03F0918003AF01425F75
:104800005F4F20E08BEFB82E6BEF70E0A191AB3FD4
:1048100099F0CA2ED12C8E2D932F0A17E8F18C19FE
:104820009D09092E000CAA0BBB0B4E97A105B105E3
:10483000C8F1DF011197BC92E417F50739F720930F
:104840005802111102C0211178C010925702A09194
:104850007F03B091800390915802EDE9F3E080E08E
:104860003191E40129914E01321751F03C913B3FC7
:10487000D9F40C93AF0141505109EA01288391E02A
:104880001196D3E0EB3AFD0759F7909358028093C5
:10489000570257C080E086CFDB01AC19BD098A0FF3
:1048A0009B1FBFCF2F2DC8CF81E0EACF9170892BFE
:1048B00009F458C080915A0290915B028130984768
:1048C00080F01092D6036091D0037091D103809153
:1048D000D2039091D3030E94E10B10925B021092DD
:1048E0005A0280915A0290915B02019690935B026A
:1048F00080935A02812FDF91CF911F910F91FF90EA
:10490000EF90DF90CF90BF909F908F9008950E947E
:10491000DB0B2EC0892B71F310925B0210925A02AE
:104920006091D0037091D1038091D2039091D30311
:104930000E94E10BDFCF111188CF809157028111C6
:1049400084CF80915A0290915B022091D60322235A
:1049500009F3009709F0AACF0E94D20B0E94CF0B57
:104960000E94CC0BC0915902CC2389F20E94CF0B3C
:1049700081E0C827C09359029DCFCDB7DEB7C95596
:10498000D1090FB6F894DEBF0FBECDBF84B7877FC5
:1049900084BF0FB6F894A8958091600088618093D9
:1049A0006000109260000FBE80E890E00FB6F894AF
:1049B00080936100909361000FBE85B7806885BFCA
:1049C00085B7806885BF0E94C8030E9495048091C6
:1049D000E20084608093E20078948091030488234D
:1049E000A1F01091E9001F709091EC00892F817067
:1049F00090FD80E8182B1092E9008091E80083FD7B
:104A00000E9411141F701093E90082E084BD93E0AE
:104A100095BD9AEF97BD80936E000E94351290E08D
:104A200090931801809317010E94150C0E94240C8A
:104A3000A9E8B3E08BEA93E0EDE9F3E011921D926F
:104A40008E179F07D9F78EE090E00E94D22A8093BC
:104A50007F0390938003FC010E962BEF2193E817C0
:104A6000F907E1F790E080E00E94182C8F3E9E4FFE
:104A700011F00E94B00D8CE090E00E940A2C90E0B2
:104A8000B0E0A0E08093810390938203A09383031E
:104A9000B093840389EA8093800089E08093810049
:104AA00024982C983F988AB18F7C8AB96E98479A3F
:104AB0008BB180638BB9769A8FE090E00E94122CC4
:104AC0006093850370938603809387039093880394
:104AD00067704FEF649FB0011124759567957595C8
:104AE00067957727709389006093880070938B0097
:104AF00060938A0070938D0060938C000E94E50C97
:104B000090E080E00E94182C8F3E9E4F11F00E9492
:104B1000B00D82E090E00E940A2C8093C1030E94B5
:104B20005F0D909398038093970383E090E00E9439
:104B30000A2C682F70E090E080E00E94F2138091D0
:104B40009903811136C090E080E00E94182C8F3EBE
:104B50009E4F21F00E94B00D0E94A10D88E090E0D0
:104B60000E94122C6093D8037093D9038093DA03C8
:104B70009093DB036E7F71F40E94A10D88E090E0BA
:104B80000E94122C6093D8037093D9038093DA03A8
:104B90009093DB030E94D0081092B2038091D80357
:104BA00080FF04C060E086950E945B1881E08093DE
:104BB00099036091D0037091D1038091D2039091B9
:104BC000D3030E94E10B89E191E090939B038093D2
:104BD0009A03A1E4EA2EF12CEC0EFD1E22E0E20E77
:104BE000F11C80910304853009F4B2C10E9487232F
:104BF000E2ECF3E0ADE9B3E010E000E0302F8D919E
:104C00002191281709F412C290E0DD24D3942827BB
:104C1000422F4D2109F405C261969FAF61976296BC
:104C20003FAF62978D2191E009F490E063969FAFCA
:104C300063970E941E138160782F65969FAF8EAF99
:104C4000659761964FAD619762965FAD6297639687
:104C50006FAD639765968FAD65970E94C622F80188
:104C6000EE53FC4F8081D826D0828091B2038823F6
:104C700009F441C08091B103E091D803E695E81BA7
:104C8000E093AD03823009F0F8C1F0E0E654FB4F49
:104C9000E4910E2F10E0F9E3CF2EF1E1DF2E8091A9
:104CA000AE03882389F01092AE030E941E13980170
:104CB00020953095820F931F9093AC038093AB03A4
:104CC0001092B0031092AF038091AB039091AC03AC
:104CD0000E9402078017910770F0E091AB03F091FA
:104CE000AC030E0F1F1F1093AC030093AB038BEAB2
:104CF00093E0F601099586E0EAEBF3E0DE01119618
:104D000001900D928A95E1F78091BC039091BD03CB
:104D1000892B09F468C08091B8039091B9030E946F
:104D200002079C019091B703992309F4B3C225317E
:104D3000310508F458C09F3F19F09F5F9093B70367
:104D40001092BE031092BF038091BC03181624F486
:104D50000E9476068093BC038091BC0387FF05C048
:104D60000E94760681958093BC038091BD0318163E
:104D700024F40E9476068093BD038091BD0387FFD3
:104D800005C00E94760681958093BD033091BC03D7
:104D90003323B1F02091BD03222391F045EB34037E
:104DA000C0011124992309F4D4C19093BC0345EBAD
:104DB000240390011124332309F4CFC13093BD03A0
:104DC0000E942A138091B5039091B6039093B90382
:104DD0008093B80386E0FE013196AAEBB3E0019020
:104DE0000D928A95E1F78091BE039091BF03892BC4
:104DF00009F468C08091B3039091B4030E94020744
:104E00009C019091B703992309F440C225313105E3
:104E100008F458C09F3F19F09F5F9093B70310921A
:104E2000BC031092BD038091BE03181624F40E94A7
:104E300056068093BE038091BE0387FF05C00E9483
:104E4000560681958093BE038091BF03181624F403
:104E50000E9456068093BF038091BF0387FF05C061
:104E60000E94560681958093BF033091BE03332381
:104E7000B1F02091BF03222391F045EB3403C00130
:104E80001124992309F46DC19093BE0345EB2403CB
:104E900090011124332309F468C13093BF030E94A9
:104EA0002A138091B5039091B6039093B403809335
:104EB000B30386E0FE013196AAEBB3E001900D92B8
:104EC0008A95E1F70E94BF089091C003891721F0ED
:104ED0000E94BF088093C00380910304843009F0CE
:104EE00080CE8093E9008091E80082FF7ACE8091A5
:104EF000E80090E085FF06C00E94E703882309F4DC
:104F000038C191E08091E8008B778093E800992385
:104F100009F467CE1981111148C18091D603882305
:104F200009F45EC11092D60381E08093D5032296E6
:104F30001FAE229723961FAE23978EEF24968FAF36
:104F4000249763E0CE018F5B9F4F0E94BF0549CE3F
:104F500080910304843009F441C010929C0388E1DD
:104F600090E020E40FB6F894A895809360000FBEFF
:104F7000209360001092B2038091DE03811117C06C
:104F800081E08093DE038091D803982F91709093F5
:104F9000DD038E7F8093D8034FEF80E792E041508E
:104FA00080409040E1F700C000000E94780E83B777
:104FB000817F846083BF83B7816083BF7894889545
:104FC00083B78E7F83BF0FB6F894A8958091600059
:104FD000886180936000109260000FBE809102048F
:104FE000882309F4FECD0E94351290E090931801B9
:104FF000809317010E94150C0E94240CEDE9F3E048
:10500000119223E0EB3AF207D9F70E948723EDE9EA
:10501000F3E08191811124C143E0EB3AF407C9F731
:10502000E0CD9F5FDD0C963009F0F2CD0F5F1F4F92
:105030000E30110509F0E2CD8FEF66968FAF6697BF
:1050400067968FAF679768961FAE68970E941E138A
:105050008160782F6A969FAF8EAF6A9766964FAD44
:10506000669767965FAD679768966FAD68976A9623
:105070008FAD6A970E94C622F8CD863059F4F0E0D1
:10508000E954FB4FE4910E2F10E0EDE4CE2EE1E168
:10509000DE2E05CE893061F4E695F0E0EC54FB4F4E
:1050A000E4910E2F10E076E7C72E7FE0D72EF7CDE4
:1050B0008F3061F4E695F0E0EF54FB4FE4910E2F52
:1050C00010E060EAC62E6FE0D62EE9CD853159F4A6
:1050D000F0E0E255FB4FE4910E2F10E05FE0C52EAB
:1050E00050E1D52EDCCD08EE13E02FE5C22E20E1F5
:1050F000D22E883109F4D3CD833249F4ECEAF4E0BE
:10510000059114914EEDC42E40E1D42EC8CD04EF8C
:1051100011E093E9C92E90E1D92E843209F4BFCD74
:10512000853281F48E2F63E00E942E2AE92FF0E071
:10513000E755FB4FE4910E2F10E03DEEC32E3EE00D
:10514000D32EADCD00ED17E08BEBC82E85E0D82E29
:10515000A6CD81E08093BC032ACE81E08093BD037D
:105160002FCE81E08093BE0391CE81E08093BF0378
:1051700096CE00E410E0CE0101966C018091E8002B
:1051800085FD0AC08091E8008B778093E8000E943B
:10519000E703882399F3B5CE8091F100F60181935E
:1051A0006F010150110951F7ACCE1130C9F42296AC
:1051B0001FAE229723961FAF23978CE0E4E2F1E025
:1051C000D70101900D928A95E1F78EEF60968FAF2F
:1051D00060976FE0CE018F5B9F4F0E94BF0501CDAE
:1051E0008091D5038823D1F1123041F01330F9F0CA
:1051F00081E022968FAF229761E0A4CE6091D00328
:105200007091D1038091D2039091D3030E947007D3
:1052100022961FAE229723961FAF239724968FAF17
:1052200024978EEF25968FAF259764E08BCE8A81E9
:10523000813041F0882341F08230D1F681E08093C3
:10524000D40302C01092D40322961FAE229783E0AB
:1052500023968FAF23978091D403E0CF8FEFC9CFF0
:1052600080E189BD82E189BD09B400FEFDCF809156
:10527000D8008F7D8093D8008091E0008260809379
:10528000E0008091E00081FDFCCFABCC232B09F046
:10529000C3CD18CE232B09F050CDA5CD1F921FB63C
:1052A0001F9211248F939F93AF93BF9380919C0380
:1052B000811113C080917A0390917B03A0917C03AC
:1052C000B0917D034196A11DB11D80937A03909307
:1052D0007B03A0937C03B0937D03BF91AF919F911B
:1052E0008F911F901FBE1F9018951092B9008CE0EF
:1052F0008093B8000895EF92FF920F931F93CF937E
:10530000DF93182FEB011092BC0084EA8093BC005D
:105310000E941E137C018091BC0087FF27C08091F2
:10532000B900887F883029F08091B900887F80316A
:10533000D9F51093BB0084E88093BC000E941E1333
:105340008C018091BC0087FF24C02091B900287F88
:1053500090E080E02831B1F081E090E0203411F459
:1053600090E080E09195819591090CC0CF3FDC07DA
:1053700091F20E941E138E199F098C179D0758F2F7
:105380008EEF9FEFDF91CF911F910F91FF90EF90E4
:105390000895CF3FDC07A9F20E941E13801B910BDA
:1053A0008C179D0770F2ECCF8FEF9FEFEBCF0F9331
:1053B0001F93CF93DF93EB018093BB0084E880932E
:1053C000BC000E941E138C018091BC0087FF11C09D
:1053D0002091B900287F81E090E0283211F490E01C
:1053E00080E0919581959109DF91CF911F910F9167
:1053F0000895CF3FDC0741F30E941E13801B910BE1
:105400008C179D0708F38EEF9FEFEECF0F931F933E
:10541000CF93DF93EC0184E88093BC000E941E13BD
:105420008C018091BC0087FF08C08091BB0090E098
:10543000DF91CF911F910F910895CF3FDC0789F342
:105440000E941E13801B910B8C179D0750F38EEF4B
:105450009FEFEECF84E98093BC000895991B79E01B
:1054600004C0991F961708F0961B881F7A95C9F7F4
:105470008095089587FB082E062687FD819567FD98
:1054800061950E942E2A0EF4919507FC819508954E
:10549000AA1BBB1B51E107C0AA1FBB1FA617B7075A
:1054A00010F0A61BB70B881F991F5A95A9F7809576
:1054B0009095BC01CD01089597FB072E16F400943A
:1054C00007D077FD09D00E94482A07FC05D03EF49A
:1054D000909581959F4F0895709561957F4F0895A0
:1054E000EE0FFF1F0590F491E02D09948F929F928B
:1054F000AF92BF92CF92DF92EF92FF92CF93DF9362
:10550000EC01688179818A819B8161157105810532
:10551000910521F464E279ED8BE597E02DE133EF1D
:1055200041E050E00E94522C49015A019B01AC011C
:10553000A7EAB1E40E94712C6B017C01ACEEB4EFE0
:10554000A50194010E947F2CDC01CB018C0D9D1DD7
:10555000AE1DBF1DB7FF03C00197A109B0488883E6
:105560009983AA83BB839F77DF91CF91FF90EF90C0
:10557000DF90CF90BF90AF909F908F9008950E9442
:10558000762A089580E091E00E94762A0895B0E09E
:10559000A0E08093000190930101A0930201B093D9
:1055A000030108950F931F93CF93DF9382309105EA
:1055B00010F482E090E0E0910F04F091100430E0EC
:1055C00020E0B0E0A0E0309799F42115310509F40E
:1055D00047C0281B390B24303105C0F58A819B81D7
:1055E0006115710571F1FB0193838283FE0111C086
:1055F000408151810281138148175907F8F04817FB
:10560000590799F4109761F012960C93129713961C
:105610001C933296CF01DF91CF911F910F91089586
:1056200000930F0410931004F4CF2115310519F0E5
:105630004217530718F49A01BD01EF01DF01F80189
:10564000C2CF9093100480930F04D0CFFE01E20FDD
:10565000F31F819391932250310939832883DACF44
:1056600020910D0430910E04232B41F4209106016A
:105670003091070130930E0420930D042091040112
:10568000309105012115310541F42DB73EB7409108
:10569000080150910901241B350B40910D045091D4
:1056A0000E044217530708F0B5CF241B350B2817FB
:1056B000390708F4AFCFBC016E5F7F4F261737075D
:1056C00008F4A8CF640F751F70930E0460930D0447
:1056D000FA01819391939ECFCF93DF930097E9F0E6
:1056E000FC01329713821282C0910F04D0911004F2
:1056F000DE0130E020E02097A1F420813181820F8B
:10570000931F20910D0430910E042817390709F0DA
:1057100067C0F0930E04E0930D04DF91CF910895DC
:10572000DA01AE17BF0708F040C012964D915C91A8
:1057300013979D014115510599F7D9011396FC93D3
:10574000EE9312974D915D91A40FB51FEA17FB07D9
:1057500079F4808191810296840F951FD901119669
:105760009C938E938281938113969C938E93129730
:10577000B0E0A0E08A819B810097B9F5FE0181919C
:105780009191E80FF91F80910D0490910E048E17EE
:105790009F0719F6109761F51092100410920F04EC
:1057A000D0930E04C0930D04B8CFB383A28340817D
:1057B0005181840F951FA817B90771F44E5F5F4F91
:1057C0008D919C911197480F591F518340831296D8
:1057D0008D919C91938382832115310509F0ADCF82
:1057E000F0931004E0930F0498CFDE01EC01C2CFD8
:1057F00013961C921E921297D3CFFC014150504039
:1058000030F001900616D1F73197CF01089588271F
:1058100099270895F999FECF92BD81BDF89A9927ED
:1058200080B50895A6E1B0E044E050E00C94442C2B
:10583000A8E1B0E042E050E00C94442C262FF99906
:10584000FECF92BD81BDF89A019700B4021639F0DF
:105850001FBA20BD0FB6F894FA9AF99A0FBE0895B0
:105860000396272F0E941F2C0E941E2C252F0E947A
:105870001F2C242F0C941F2C0196272F0E941F2CC5
:105880000C941E2CDC01CB01FC01F999FECF06C063
:10589000F2BDE1BDF89A319600B40D9241505040EE
:1058A000B8F70895052E97FB1EF400940E94692C0A
:1058B00057FD07D00E94842C07FC03D04EF40C94B3
:1058C000692C50954095309521953F4F4F4F5F4F34
:1058D000089590958095709561957F4F8F4F9F4F5C
:1058E00008950E94A62CA59F900DB49F900DA49F93
:1058F000800D911D11240895B7FF0C94712C0E9406
:10590000712C821B930B0895A1E21A2EAA1BBB1BBC
:10591000FD010DC0AA1FBB1FEE1FFF1FA217B3077B
:10592000E407F50720F0A21BB30BE40BF50B661F91
:10593000771F881F991F1A9469F760957095809555
:1059400090959B01AC01BD01CF010895A29FB001CC
:10595000B39FC001A39F700D811D1124911DB29FA3
:10596000700D811D1124911D0895F894FFCFB70B80
:10597000B70BC00BC00BC20BC00BC00BC00BB70BDF
:10598000B70BC70BC00BC00BC70BFC0B080C0D0CE7
:10599000060C0B0C120C100C30155815C4165815AB
:1059A000C4168B15AC15C41675168216911CB31C43
:1059B000BA1CBF1CC41CC91CCE1CD31CD81CDD1CAB
:1059C000E21CB61AE71CEC1CEF1CF21CF51CF81CC0
:1059D000FA1CFD1CA31DA31D2F1E2F1E831E9F1E20
:1059E0001E20D91DAA1E821F931F931F28205520F9
:0A59F000322035203C2038204120F1
:1059FA000100000000001104200001191A1B1C1DDF
:105A0A001E1F20212201022000BC059F0C740C706D
:105A1A000C5E0C015A7142307A2F346F5A4C6F0067
:105A2A000001020202020606060909090909090F0C
:105A3A000F0F0F0F0F15151518191919191919190B
:105A4A001919192324252525252525000D010D02BF
:105A5A000D030D040D050D000C010C020C030C04C2
:105A6A000C050C000B010B020B030B040B050B00BE
:105A7A000A010A020A030A040A050A0009010902BC
:105A8A0009030904090509000801080208030804B2
:105A9A0008050800070107020703070407050700AE
:105AAA0006010602060306040605060005010502AC
:105ABA0005030504050505000401040204030404A2
:105ACA00040504000301030203030304030503009E
